:100DDB002D2D2D524649442042617365642D2D2DD6
:100DEB0000417474656E64616E63652050726F6A46
:100DFB00002D2D47726F7570204E756D6265722DCB
:100E0B002D0009092D2D2D2D31302D2D2D2D00537C
:100E1B0063616E20596F757220436172643A0052A0
:100E2B00666964204E6F2E2069733A003531333377
:100E3B003553483835365031002041747474656E23
:100E4B006465640020536872657961736820506132
:100E5B0077617220004174746E642E204E6F2E3AAF
:100E6B002000256400373130304755433336395332
:100E7B00310020417474656E6465640020476175B0
:100E8B00726176205368696E6465200031363030AC
:100E9B00524F4344313437410020526F68697420FC
:100EAB00416C6268617220003136303041564344E8
:100EBB003135385900204176616E6565736820596C
:100ECB006164617620004361726420646F6E2774E5
:100EDB002065786973740054727920416E6F746861
:080EEB0065722043617264008E
:0311810001360034
:10107C00D2A4C2A37F2C7E0112108EC2A4C2A37F65
:02108C00C81E7C
:10108E00E4FDFCC3ED9FEE6480F8EC64809850158F
:10109E00E4FBFA0BBB00010ABA04F8BBFBF50DBD6D
:0510AE0000010C80DED2
:0110B300221A
:10114C00D290C291D2927F057E0012108EC2922252
:10113900A907E954F0F59012114CE9C454F0F5905F
:0311490002114C44
:0E115C00C290D2927F057E0012108EC29222A7
:091109007FC87E0012108E7F01E8
:10111200A907E954F0F59012115CE9C454F0F59076
:0311220002115C5B
:0B10B4007FC01211127BFF7A0E7960E2
:1010BF008B088A09890AAB08AA09A90A120EF3FF3D
:1010CF0060101211397401250AF50AE43509F50982
:0310DF0080E42288
:101125007F021211127F281211127F0E1211127FE7
:041135000102111290
:0C116A00758920759850758DFDD28E227D
:0B1176003098FD859936C298AF3622F4
:100B5C00D2A612116A1211257BFF7A0D79DB1210C5
:100B6C00BF7FC01211127BFF7A0D79EC1210BF7F80
:100B7C00F47E0112108E1211257BFF7A0D79FC1276
:100B8C0010BF7FC01211127BFF7A0E790D1210BFAD
:100B9C007F907E0112108E7F011211127BFF7A0E54
:100BAC00791A1210BF7FC0121112E4F569F569AF02
:100BBC0069EF3395E0FEC3EF940CEE6480948050A3
:100BCC000E12117674232569F8A607056980E07466
:100BDC00232569F8E4F67F011211127BFF7A0E7956
:100BEC002A1210BF7FC0121112E4F569AF69EF33FE
:100BFC0095E0FEC3EF940CEE64809480500D74234A
:100C0C002FF8E6FF121139056980E17F647E00122E
:100C1C00108E750BFF750C0E750D37750E00750F5C
:100C2C000C7B007A00792312100DEF3395E04F7096
:100C3C00500531E531700205307F011211127BFF36
:100C4C007A0E79441210BF1211097BFF7A0E794F7C
:100C5C001210BF1210B4750BFF750C0E750D6D854F
:100C6C00300E85310F7B007A00792212085C7B00F4
:100C7C007A0079221210BF12107CC2A4D2A3020BEC
:100C8C00A3750BFF750C0E750D70750E00750F0CA2
:100C9C007B007A00792312100DEF3395E04F7037FB
:100CAC000533E533700205327F011211127BFF7A96
:100CBC000E797D1210BF1211097BFF7A0E79871203
:100CCC0010BF1210B4750BFF750C0E750D6D8532BF
:100CDC000E85330F020D8B750BFF750C0E750D9772
:100CEC00750E00750F0C7B007A00792312100DEF36
:100CFC003395E04F70360535E535700205347F01CC
:100D0C001211127BFF7A0E797D1210BF1211097B22
:100D1C00FF7A0E79A41210BF1210B4750BFF750C6C
:100D2C000E750D6D85340E85350F8053750BFF7563
:100D3C000C0E750DB3750E00750F0C7B007A0079D7
:100D4C002312100DEF3395E04F705A0535E53570D1
:100D5C000205347F011211127BFF7A0E797D12107D
:100D6C00BF1211097BFF7A0E79C01210BF1210B49A
:100D7C00750BFF750C0E750D6D85340E85350F7B5F
:100D8C00007A00792212085C7B007A00792212101A
:100D9C00BF12107CC2A4D2A37F2C0E12108EC2A440
:100DAC00C2A3020BA37F011211127BFF7A0E79D121
:100DBC001210BF7FC01211127BFF7A0E79E2121053
:0F0DCC00BFC2A67F2C7E0112108ED2A6020BA3EF
:03000000020F816B
:0C0F8100787FE4F6D8FD758169020FC886
:100EF300BB010689828A83E0225002E722BBFE02FD
:090F0300E32289828A83E493222F
:10080000E517240BF8E60517227808300702780B65
:10081000E475F001120F4B020EF32000EB7F2ED295
:10082000008018EF540F2490D43440D4FF30040BD0
:10083000EF24BFB41A0050032461FFE518600215CD
:1008400018051BE51B7002051A30070D7808E475C2
:10085000F001120F4BEF020F390210E27403D207BE
:100860008003E4C207F5178B088A09890AE4F518A2
:10087000F51AF51BE51860077F2012083B80F57517
:1008800019FFC201C200C202C203C205C206C208E9
:10089000120809FF700D3007057F0012084CAF1BCE
:1008A000AE1A22B4255FC2D5C204120809FF24D0B3
:1008B000B40A00501A75F00A781830D50508B6FF4A
:1008C0000106C6A426F620D5047002D20380D924DE
:1008D000CFB41A00EF5004C2E5D204020A4CD20190
:1008E00080C6D20080C0D20280BCD2D580BAD205E8
:1008F00080B47F2012083B2002077401B518004025
:10090000F1120800FF12083B020874D208D20680D8
:1009100095120800FB120800FA120800F94A4B7001
:1009200006791D7A0B7BFF20022EE518602A7E00D7
:100930008E82758300120F0C60060EEE651970F042
:10094000C2D5EBC0E0EAC0E0E9C0E0EE120A93D005
:10095000E0F9D0E0FAD0E0FB120EF3FF60AAEBC0A2
:10096000E0EAC0E0E9C0E012083BD0E02401F9D0A1
:10097000E03400FAD0E0FBE5190460DCD519D98039
:10098000877BFF7A0A798FD202809C791080027966
:1009900008C206C2088008D2D5790A8004790AC242
:1009A000D5E519047002F519E4FAFDFEFF120800FE
:1009B000FC7B08200113120800FD7B1030000A1296
:1009C0000800FE120800FF7B20EC3382D592D55040
:1009D00013C3E43000069FFFE49EFEE42001039D64
:1009E000FDE49CFCE4CBF8C201EC700CCFCECDCC86
:1009F000E824F8F870F38017C3EF33FFEE33FEED11
:100A000033FDEC33FCEB33FB994002FB0FD8E9EBF1
:100A1000300105F8D0E0C448B201C0E00AEC4D4E08
:100A20004F78207B0070C2EAB5190040BCC0E012CC
:100A30000A95D0F0D0E0200104C4C0E0C4B201C0E7
:100A4000F0120824D0F0D5F0EB020874120F5B0905
:100A50001153098B5808E24C08DE42098F4F099761
:0F0A60004409974908F743099D550981460981C3
:100A6F00450981470B3D5008E62D08EA2E090D2B4D
:100A7F0008EE23090B200B262A08A64800000905BB
:100A8F003F3F3F00790AA2D5200314300509B91062
:100A9F00020404B9080104A2D52006025001042063
:100AAF0002689202B518005034C0E07F203003195D
:100ABF007F30A20272067205500F120AECC202C2F8
:100ACF0006C205C2087F30800F300503E9C0E0126F
:100ADF00083B300503D0E0F9D0E0B518CC3005174E
:100AEF007F30B9100C12083B7F583004077F788095
:100AFF0003B9080312083B3002057F2D02083B7F24
:100B0F00202008F87F2B2006F322920280CF286E38
:100B1F00756C6C2900D2011208003001F8C20178FF
:100B2F001830D50108F60208A62D5043495812086F
:100B3F00002403B405004001E4900B389312082CF5
:0D0B4F00743A12082CD20375180402098BA9
:10100D008B088A09890AAB0BAA0CA90D120EF3FEE7
:10101D00AB08AA09A90A120EF3FF6E702BEF600D33
:10102D00E50F150F7002150E14450E70037F00228B
:10103D007401250AF50AE43509F5097401250DF544
:10104D000DE4350CF50C80BEAB08AA09A90A120EE9
:10105D00F3FDD3EE6480F8ED64809840037F0122A8
:0F106D00AB0BAA0CA90D120EF3FFC3ED9FFF22D0
:100F8D00020B5CE493A3F8E493A34003F68001F213
:100F9D0008DFF48029E493A3F85407240CC8C33365
:100FAD00C4540F4420C8834004F456800146F6DF34
:100FBD00E4800B0102040810204080901181E47E32
:100FCD00019360BCA3FF543F30E509541FFEE49329
:100FDD00A360010ECF54C025E060A840B8E493A3F0
:100FED00FAE493A3F8E493A3C8C582C8CAC583CA1B
:100FFD00F0A3C8C582C8CAC583CADFE9DEE780BED3
:01118400006A
:100F0C00BB010CE58229F582E5833AF583E022509A
:100F1C0006E92582F8E622BBFE06E92582F8E222E4
:0D0F2C00E58229F582E5833AF583E49322FE
:100F3900BB010689828A83F0225002F722BBFE0197
:020F4900F32291
:100F4B00FAE6FB0808E6F925F0F618E6CA3AF622A7
:100F5B00D083D082F8E4937012740193700DA3A325
:100F6B0093F8740193F5828883E473740293686039
:060F7B00EFA3A3A380DF39
:1010E200EFB40A07740D1210ED740A309811A89922
:1010F200B8130CC2983098FDA899C298B811F6306E
:0711020099FDC299F5992245
:00000001FF
